:100000000C942A000C9434000C9434000C943400AA
:100010000C9434000C9434000C9434000C94340090
:100020000C9434000C9434000C9434000C94340080
:100030000C9434000C9434000C9434000C94340070
:100040000C9434000C9434000C9434000C94340060
:100050000C94340011241FBECFE5D8E0DEBFCDBF25
:100060000E9436000C946A000C9400008D9A82E87D
:100070008FBD8AE18EBD8FE19EE497BD86BD20E0F5
:1000800040E45CE938E10BC0239FC0011124885192
:100090009C4F9BBD8ABDCA010197F1F72F5F243B9E
:1000A00098F388EC94E19BBD8ABDFA013197F1F792
:1000B000489723E0883E9207B1F720E0E5CF8D9A7C
:1000C000089582E88FBD8AE18EBD8FE19EE497BDE1
:0800D00086BD0895F894FFCFEE
:00000001FF
